{
  "address": "0x748f8e92b94bACFB18b53619bA501a5c93724a3d",
  "abi": [
    {
      "inputs": [
        {
          "internalType": "address",
          "name": "hbtContract_",
          "type": "address"
        },
        {
          "internalType": "uint128",
          "name": "dripAmount_",
          "type": "uint128"
        },
        {
          "internalType": "uint128",
          "name": "timeLockInSeconds_",
          "type": "uint128"
        }
      ],
      "stateMutability": "payable",
      "type": "constructor"
    },
    {
      "anonymous": false,
      "inputs": [
        {
          "indexed": false,
          "internalType": "address",
          "name": "recipient",
          "type": "address"
        },
        {
          "indexed": false,
          "internalType": "uint256",
          "name": "amount",
          "type": "uint256"
        }
      ],
      "name": "Dripped",
      "type": "event"
    },
    {
      "anonymous": false,
      "inputs": [
        {
          "indexed": true,
          "internalType": "address",
          "name": "previousOwner",
          "type": "address"
        },
        {
          "indexed": true,
          "internalType": "address",
          "name": "newOwner",
          "type": "address"
        }
      ],
      "name": "OwnershipTransferred",
      "type": "event"
    },
    {
      "anonymous": false,
      "inputs": [
        {
          "indexed": false,
          "internalType": "address",
          "name": "recipient",
          "type": "address"
        },
        {
          "indexed": false,
          "internalType": "uint256",
          "name": "amount",
          "type": "uint256"
        }
      ],
      "name": "Withdrawn",
      "type": "event"
    },
    {
      "stateMutability": "payable",
      "type": "fallback"
    },
    {
      "inputs": [],
      "name": "drip",
      "outputs": [],
      "stateMutability": "nonpayable",
      "type": "function"
    },
    {
      "inputs": [],
      "name": "dripAmount",
      "outputs": [
        {
          "internalType": "uint128",
          "name": "",
          "type": "uint128"
        }
      ],
      "stateMutability": "view",
      "type": "function"
    },
    {
      "inputs": [],
      "name": "getBalance",
      "outputs": [
        {
          "internalType": "uint256",
          "name": "",
          "type": "uint256"
        }
      ],
      "stateMutability": "view",
      "type": "function"
    },
    {
      "inputs": [],
      "name": "getStatus",
      "outputs": [
        {
          "internalType": "uint256",
          "name": "balance_",
          "type": "uint256"
        },
        {
          "internalType": "address",
          "name": "hbtContract_",
          "type": "address"
        },
        {
          "internalType": "uint128",
          "name": "dripAmount_",
          "type": "uint128"
        },
        {
          "internalType": "uint128",
          "name": "timeLockInSeconds_",
          "type": "uint128"
        }
      ],
      "stateMutability": "view",
      "type": "function"
    },
    {
      "inputs": [],
      "name": "hbtContract",
      "outputs": [
        {
          "internalType": "address",
          "name": "",
          "type": "address"
        }
      ],
      "stateMutability": "view",
      "type": "function"
    },
    {
      "inputs": [
        {
          "internalType": "address",
          "name": "",
          "type": "address"
        }
      ],
      "name": "lastDrip",
      "outputs": [
        {
          "internalType": "uint256",
          "name": "",
          "type": "uint256"
        }
      ],
      "stateMutability": "view",
      "type": "function"
    },
    {
      "inputs": [],
      "name": "owner",
      "outputs": [
        {
          "internalType": "address",
          "name": "",
          "type": "address"
        }
      ],
      "stateMutability": "view",
      "type": "function"
    },
    {
      "inputs": [],
      "name": "renounceOwnership",
      "outputs": [],
      "stateMutability": "nonpayable",
      "type": "function"
    },
    {
      "inputs": [],
      "name": "timeLockInSeconds",
      "outputs": [
        {
          "internalType": "uint128",
          "name": "",
          "type": "uint128"
        }
      ],
      "stateMutability": "view",
      "type": "function"
    },
    {
      "inputs": [
        {
          "internalType": "address",
          "name": "newOwner",
          "type": "address"
        }
      ],
      "name": "transferOwnership",
      "outputs": [],
      "stateMutability": "nonpayable",
      "type": "function"
    },
    {
      "inputs": [
        {
          "internalType": "uint128",
          "name": "newAmount",
          "type": "uint128"
        }
      ],
      "name": "updateDripAmount",
      "outputs": [],
      "stateMutability": "nonpayable",
      "type": "function"
    },
    {
      "inputs": [
        {
          "internalType": "address",
          "name": "newHBTContractAddress",
          "type": "address"
        }
      ],
      "name": "updateHBTContractAddress",
      "outputs": [],
      "stateMutability": "nonpayable",
      "type": "function"
    },
    {
      "inputs": [
        {
          "internalType": "uint128",
          "name": "newTimeLock",
          "type": "uint128"
        }
      ],
      "name": "updateTimeLock",
      "outputs": [],
      "stateMutability": "nonpayable",
      "type": "function"
    },
    {
      "inputs": [
        {
          "internalType": "uint256",
          "name": "amount",
          "type": "uint256"
        }
      ],
      "name": "withdraw",
      "outputs": [],
      "stateMutability": "nonpayable",
      "type": "function"
    },
    {
      "inputs": [],
      "name": "withdrawAll",
      "outputs": [],
      "stateMutability": "nonpayable",
      "type": "function"
    },
    {
      "stateMutability": "payable",
      "type": "receive"
    }
  ],
  "transactionHash": "0x107f5c4e7eb2d82d5b498cf93582bc809de09ebadcba7bd2a112d4251622e890",
  "args": [
    "0x1888649d566908e0a4ac17978740f6a04f600a51",
    "100000000000000000",
    1209600
  ],
  "numDeployments": 2,
  "solcInputHash": "311458152ead8e26fdb7447a19e34670",
  "bytecode": "0x60806040526040516200158938038062001589833981810160405281019062000029919062000288565b620000496200003d6200010560201b60201c565b6200010d60201b60201c565b82600160006101000a81548173ffffffffffffffffffffffffffffffffffffffff021916908373ffffffffffffffffffffffffffffffffffffffff16021790555081600260006101000a8154816fffffffffffffffffffffffffffffffff02191690836fffffffffffffffffffffffffffffffff16021790555080600260106101000a8154816fffffffffffffffffffffffffffffffff02191690836fffffffffffffffffffffffffffffffff160217905550505050620002e4565b600033905090565b60008060009054906101000a900473ffffffffffffffffffffffffffffffffffffffff169050816000806101000a81548173ffffffffffffffffffffffffffffffffffffffff021916908373ffffffffffffffffffffffffffffffffffffffff1602179055508173ffffffffffffffffffffffffffffffffffffffff168173ffffffffffffffffffffffffffffffffffffffff167f8be0079c531659141344cd1fd0a4f28419497f9722a3daafe3b4186f6b6457e060405160405180910390a35050565b600080fd5b600073ffffffffffffffffffffffffffffffffffffffff82169050919050565b60006200020382620001d6565b9050919050565b6200021581620001f6565b81146200022157600080fd5b50565b60008151905062000235816200020a565b92915050565b60006fffffffffffffffffffffffffffffffff82169050919050565b62000262816200023b565b81146200026e57600080fd5b50565b600081519050620002828162000257565b92915050565b600080600060608486031215620002a457620002a3620001d1565b5b6000620002b48682870162000224565b9350506020620002c78682870162000271565b9250506040620002da8682870162000271565b9150509250925092565b61129580620002f46000396000f3fe6080604052600436106100ec5760003560e01c8063715018a61161008a57806398caffc61161005957806398caffc6146102b55780639f678cca146102e0578063cfb530de146102f7578063f2fde38b14610320576100f3565b8063715018a6146102335780637c5e59ee1461024a578063853828b6146102735780638da5cb5b1461028a576100f3565b80632e1a7d4d116100c65780632e1a7d4d1461018857806335a1529b146101b15780634e69d560146101dc578063553659391461020a576100f3565b80630762fde3146100f55780630935f0041461012057806312065fe01461015d576100f3565b366100f357005b005b34801561010157600080fd5b5061010a610349565b6040516101179190610b94565b60405180910390f35b34801561012c57600080fd5b5061014760048036038101906101429190610c12565b61036b565b6040516101549190610c58565b60405180910390f35b34801561016957600080fd5b50610172610383565b60405161017f9190610c58565b60405180910390f35b34801561019457600080fd5b506101af60048036038101906101aa9190610c9f565b61038b565b005b3480156101bd57600080fd5b506101c661039f565b6040516101d39190610b94565b60405180910390f35b3480156101e857600080fd5b506101f16103c1565b6040516102019493929190610cdb565b60405180910390f35b34801561021657600080fd5b50610231600480360381019061022c9190610d4c565b610437565b005b34801561023f57600080fd5b5061024861047b565b005b34801561025657600080fd5b50610271600480360381019061026c9190610d4c565b61048f565b005b34801561027f57600080fd5b506102886104d3565b005b34801561029657600080fd5b5061029f6104ec565b6040516102ac9190610d79565b60405180910390f35b3480156102c157600080fd5b506102ca610515565b6040516102d79190610d79565b60405180910390f35b3480156102ec57600080fd5b506102f561053b565b005b34801561030357600080fd5b5061031e60048036038101906103199190610c12565b610860565b005b34801561032c57600080fd5b5061034760048036038101906103429190610c12565b6108ac565b005b600260109054906101000a90046fffffffffffffffffffffffffffffffff1681565b60036020528060005260406000206000915090505481565b600047905090565b610393610930565b61039c816109ae565b50565b600260009054906101000a90046fffffffffffffffffffffffffffffffff1681565b60008060008047600160009054906101000a900473ffffffffffffffffffffffffffffffffffffffff16600260009054906101000a90046fffffffffffffffffffffffffffffffff16600260109054906101000a90046fffffffffffffffffffffffffffffffff16935093509350935090919293565b61043f610930565b80600260006101000a8154816fffffffffffffffffffffffffffffffff02191690836fffffffffffffffffffffffffffffffff16021790555050565b610483610930565b61048d6000610a9d565b565b610497610930565b80600260106101000a8154816fffffffffffffffffffffffffffffffff02191690836fffffffffffffffffffffffffffffffff16021790555050565b6104db610930565b60004790506104e9816109ae565b50565b60008060009054906101000a900473ffffffffffffffffffffffffffffffffffffffff16905090565b600160009054906101000a900473ffffffffffffffffffffffffffffffffffffffff1681565b6000600160009054906101000a900473ffffffffffffffffffffffffffffffffffffffff1673ffffffffffffffffffffffffffffffffffffffff166370a08231336040518263ffffffff1660e01b81526004016105989190610d79565b602060405180830381600087803b1580156105b257600080fd5b505af11580156105c6573d6000803e3d6000fd5b505050506040513d601f19601f820116820180604052508101906105ea9190610da9565b1161062a576040517f08c379a000000000000000000000000000000000000000000000000000000000815260040161062190610e59565b60405180910390fd5b600260109054906101000a90046fffffffffffffffffffffffffffffffff166fffffffffffffffffffffffffffffffff16600360003373ffffffffffffffffffffffffffffffffffffffff1673ffffffffffffffffffffffffffffffffffffffff168152602001908152602001600020546106a59190610ea8565b42116106e6576040517f08c379a00000000000000000000000000000000000000000000000000000000081526004016106dd90610f70565b60405180910390fd5b42600360003373ffffffffffffffffffffffffffffffffffffffff1673ffffffffffffffffffffffffffffffffffffffff1681526020019081526020016000208190555060003373ffffffffffffffffffffffffffffffffffffffff16600260009054906101000a90046fffffffffffffffffffffffffffffffff166fffffffffffffffffffffffffffffffff1660405161078090610fc1565b60006040518083038185875af1925050503d80600081146107bd576040519150601f19603f3d011682016040523d82523d6000602084013e6107c2565b606091505b5050905080610806576040517f08c379a00000000000000000000000000000000000000000000000000000000081526004016107fd90611048565b60405180910390fd5b7f0daf449977d5acafa35195e10b3eb92f97839892a6653afaba222379b58d8a9b33600260009054906101000a90046fffffffffffffffffffffffffffffffff166040516108559291906110a3565b60405180910390a150565b610868610930565b80600160006101000a81548173ffffffffffffffffffffffffffffffffffffffff021916908373ffffffffffffffffffffffffffffffffffffffff16021790555050565b6108b4610930565b600073ffffffffffffffffffffffffffffffffffffffff168173ffffffffffffffffffffffffffffffffffffffff161415610924576040517f08c379a000000000000000000000000000000000000000000000000000000000815260040161091b9061113e565b60405180910390fd5b61092d81610a9d565b50565b610938610b61565b73ffffffffffffffffffffffffffffffffffffffff166109566104ec565b73ffffffffffffffffffffffffffffffffffffffff16146109ac576040517f08c379a00000000000000000000000000000000000000000000000000000000081526004016109a3906111aa565b60405180910390fd5b565b600033905060008173ffffffffffffffffffffffffffffffffffffffff16836040516109d990610fc1565b60006040518083038185875af1925050503d8060008114610a16576040519150601f19603f3d011682016040523d82523d6000602084013e610a1b565b606091505b5050905080610a5f576040517f08c379a0000000000000000000000000000000000000000000000000000000008152600401610a5690611216565b60405180910390fd5b7f7084f5476618d8e60b11ef0d7d3f06914655adb8793e28ff7f018d4c76d505d58284604051610a90929190611236565b60405180910390a1505050565b60008060009054906101000a900473ffffffffffffffffffffffffffffffffffffffff169050816000806101000a81548173ffffffffffffffffffffffffffffffffffffffff021916908373ffffffffffffffffffffffffffffffffffffffff1602179055508173ffffffffffffffffffffffffffffffffffffffff168173ffffffffffffffffffffffffffffffffffffffff167f8be0079c531659141344cd1fd0a4f28419497f9722a3daafe3b4186f6b6457e060405160405180910390a35050565b600033905090565b60006fffffffffffffffffffffffffffffffff82169050919050565b610b8e81610b69565b82525050565b6000602082019050610ba96000830184610b85565b92915050565b600080fd5b600073ffffffffffffffffffffffffffffffffffffffff82169050919050565b6000610bdf82610bb4565b9050919050565b610bef81610bd4565b8114610bfa57600080fd5b50565b600081359050610c0c81610be6565b92915050565b600060208284031215610c2857610c27610baf565b5b6000610c3684828501610bfd565b91505092915050565b6000819050919050565b610c5281610c3f565b82525050565b6000602082019050610c6d6000830184610c49565b92915050565b610c7c81610c3f565b8114610c8757600080fd5b50565b600081359050610c9981610c73565b92915050565b600060208284031215610cb557610cb4610baf565b5b6000610cc384828501610c8a565b91505092915050565b610cd581610bd4565b82525050565b6000608082019050610cf06000830187610c49565b610cfd6020830186610ccc565b610d0a6040830185610b85565b610d176060830184610b85565b95945050505050565b610d2981610b69565b8114610d3457600080fd5b50565b600081359050610d4681610d20565b92915050565b600060208284031215610d6257610d61610baf565b5b6000610d7084828501610d37565b91505092915050565b6000602082019050610d8e6000830184610ccc565b92915050565b600081519050610da381610c73565b92915050565b600060208284031215610dbf57610dbe610baf565b5b6000610dcd84828501610d94565b91505092915050565b600082825260208201905092915050565b7f556e617574686f72697a65643a204f776e657273686970206f6620612048756d60008201527f616e626f756e6420546f6b656e20697320726571756972656400000000000000602082015250565b6000610e43603983610dd6565b9150610e4e82610de7565b604082019050919050565b60006020820190508181036000830152610e7281610e36565b9050919050565b7f4e487b7100000000000000000000000000000000000000000000000000000000600052601160045260246000fd5b6000610eb382610c3f565b9150610ebe83610c3f565b9250827fffffffffffffffffffffffffffffffffffffffffffffffffffffffffffffffff03821115610ef357610ef2610e79565b5b828201905092915050565b7f596f75207265616368656420796f75722071756f74612e20436f6d652062616360008201527f6b2061667465722074686520636f6f6c646f776e20706572696f642e00000000602082015250565b6000610f5a603c83610dd6565b9150610f6582610efe565b604082019050919050565b60006020820190508181036000830152610f8981610f4d565b9050919050565b600081905092915050565b50565b6000610fab600083610f90565b9150610fb682610f9b565b600082019050919050565b6000610fcc82610f9e565b9150819050919050565b7f4661696c656420746f2064726970204554482e20497320746865726520656e6f60008201527f7567682066756e64733f00000000000000000000000000000000000000000000602082015250565b6000611032602a83610dd6565b915061103d82610fd6565b604082019050919050565b6000602082019050818103600083015261106181611025565b9050919050565b6000819050919050565b600061108d61108861108384610b69565b611068565b610c3f565b9050919050565b61109d81611072565b82525050565b60006040820190506110b86000830185610ccc565b6110c56020830184611094565b9392505050565b7f4f776e61626c653a206e6577206f776e657220697320746865207a65726f206160008201527f6464726573730000000000000000000000000000000000000000000000000000602082015250565b6000611128602683610dd6565b9150611133826110cc565b604082019050919050565b600060208201905081810360008301526111578161111b565b9050919050565b7f4f776e61626c653a2063616c6c6572206973206e6f7420746865206f776e6572600082015250565b6000611194602083610dd6565b915061119f8261115e565b602082019050919050565b600060208201905081810360008301526111c381611187565b9050919050565b7f4661696c6564207769746864726177696e672045544800000000000000000000600082015250565b6000611200601683610dd6565b915061120b826111ca565b602082019050919050565b6000602082019050818103600083015261122f816111f3565b9050919050565b600060408201905061124b6000830185610ccc565b6112586020830184610c49565b939250505056fea2646970667358221220c88a71abeb08a383ab76f8bff5d8ececf882b3ff97349cf642ce6f54afa49f7764736f6c63430008090033",
  "devdoc": {
    "kind": "dev",
    "methods": {
      "owner()": {
        "details": "Returns the address of the current owner."
      },
      "renounceOwnership()": {
        "details": "Leaves the contract without owner. It will not be possible to call `onlyOwner` functions anymore. Can only be called by the current owner. NOTE: Renouncing ownership will leave the contract without an owner, thereby removing any functionality that is only available to the owner."
      },
      "transferOwnership(address)": {
        "details": "Transfers ownership of the contract to a new account (`newOwner`). Can only be called by the current owner."
      }
    },
    "version": 1
  },
  "userdoc": {
    "kind": "user",
    "methods": {},
    "version": 1
  },
  "storageLayout": {
    "storage": [
      {
        "astId": 7,
        "contract": "contracts/Faucet.sol:HumanboundTokenGatedFaucet",
        "label": "_owner",
        "offset": 0,
        "slot": "0",
        "type": "t_address"
      },
      {
        "astId": 2299,
        "contract": "contracts/Faucet.sol:HumanboundTokenGatedFaucet",
        "label": "hbtContract",
        "offset": 0,
        "slot": "1",
        "type": "t_address"
      },
      {
        "astId": 2301,
        "contract": "contracts/Faucet.sol:HumanboundTokenGatedFaucet",
        "label": "dripAmount",
        "offset": 0,
        "slot": "2",
        "type": "t_uint128"
      },
      {
        "astId": 2303,
        "contract": "contracts/Faucet.sol:HumanboundTokenGatedFaucet",
        "label": "timeLockInSeconds",
        "offset": 16,
        "slot": "2",
        "type": "t_uint128"
      },
      {
        "astId": 2307,
        "contract": "contracts/Faucet.sol:HumanboundTokenGatedFaucet",
        "label": "lastDrip",
        "offset": 0,
        "slot": "3",
        "type": "t_mapping(t_address,t_uint256)"
      }
    ],
    "types": {
      "t_address": {
        "encoding": "inplace",
        "label": "address",
        "numberOfBytes": "20"
      },
      "t_mapping(t_address,t_uint256)": {
        "encoding": "mapping",
        "key": "t_address",
        "label": "mapping(address => uint256)",
        "numberOfBytes": "32",
        "value": "t_uint256"
      },
      "t_uint128": {
        "encoding": "inplace",
        "label": "uint128",
        "numberOfBytes": "16"
      },
      "t_uint256": {
        "encoding": "inplace",
        "label": "uint256",
        "numberOfBytes": "32"
      }
    }
  }
}