{
  "address": "0xd77C3840dE2C630bD503E812ddE73dA0d5e26A8F",
  "abi": [
    {
      "inputs": [
        {
          "internalType": "address",
          "name": "hbtContract_",
          "type": "address"
        },
        {
          "internalType": "uint256",
          "name": "dripAmount_",
          "type": "uint256"
        },
        {
          "internalType": "uint256",
          "name": "timeLockInSeconds",
          "type": "uint256"
        }
      ],
      "stateMutability": "payable",
      "type": "constructor"
    },
    {
      "anonymous": false,
      "inputs": [
        {
          "indexed": false,
          "internalType": "address",
          "name": "recipient",
          "type": "address"
        },
        {
          "indexed": false,
          "internalType": "uint256",
          "name": "amount",
          "type": "uint256"
        }
      ],
      "name": "Dripped",
      "type": "event"
    },
    {
      "anonymous": false,
      "inputs": [
        {
          "indexed": true,
          "internalType": "address",
          "name": "previousOwner",
          "type": "address"
        },
        {
          "indexed": true,
          "internalType": "address",
          "name": "newOwner",
          "type": "address"
        }
      ],
      "name": "OwnershipTransferred",
      "type": "event"
    },
    {
      "anonymous": false,
      "inputs": [
        {
          "indexed": false,
          "internalType": "address",
          "name": "recipient",
          "type": "address"
        },
        {
          "indexed": false,
          "internalType": "uint256",
          "name": "amount",
          "type": "uint256"
        }
      ],
      "name": "Withdrawn",
      "type": "event"
    },
    {
      "stateMutability": "payable",
      "type": "fallback"
    },
    {
      "inputs": [],
      "name": "drip",
      "outputs": [],
      "stateMutability": "nonpayable",
      "type": "function"
    },
    {
      "inputs": [],
      "name": "dripAmount",
      "outputs": [
        {
          "internalType": "uint256",
          "name": "",
          "type": "uint256"
        }
      ],
      "stateMutability": "view",
      "type": "function"
    },
    {
      "inputs": [],
      "name": "getBalance",
      "outputs": [
        {
          "internalType": "uint256",
          "name": "",
          "type": "uint256"
        }
      ],
      "stateMutability": "view",
      "type": "function"
    },
    {
      "inputs": [],
      "name": "hbtContract",
      "outputs": [
        {
          "internalType": "address",
          "name": "",
          "type": "address"
        }
      ],
      "stateMutability": "view",
      "type": "function"
    },
    {
      "inputs": [
        {
          "internalType": "address",
          "name": "",
          "type": "address"
        }
      ],
      "name": "lastDrip",
      "outputs": [
        {
          "internalType": "uint256",
          "name": "",
          "type": "uint256"
        }
      ],
      "stateMutability": "view",
      "type": "function"
    },
    {
      "inputs": [],
      "name": "owner",
      "outputs": [
        {
          "internalType": "address",
          "name": "",
          "type": "address"
        }
      ],
      "stateMutability": "view",
      "type": "function"
    },
    {
      "inputs": [],
      "name": "renounceOwnership",
      "outputs": [],
      "stateMutability": "nonpayable",
      "type": "function"
    },
    {
      "inputs": [],
      "name": "timeLock",
      "outputs": [
        {
          "internalType": "uint256",
          "name": "",
          "type": "uint256"
        }
      ],
      "stateMutability": "view",
      "type": "function"
    },
    {
      "inputs": [
        {
          "internalType": "address",
          "name": "newOwner",
          "type": "address"
        }
      ],
      "name": "transferOwnership",
      "outputs": [],
      "stateMutability": "nonpayable",
      "type": "function"
    },
    {
      "inputs": [
        {
          "internalType": "uint256",
          "name": "newAmount",
          "type": "uint256"
        }
      ],
      "name": "updateDripAmount",
      "outputs": [],
      "stateMutability": "nonpayable",
      "type": "function"
    },
    {
      "inputs": [
        {
          "internalType": "address",
          "name": "newHBTContractAddress",
          "type": "address"
        }
      ],
      "name": "updateHBTContractAddress",
      "outputs": [],
      "stateMutability": "nonpayable",
      "type": "function"
    },
    {
      "inputs": [
        {
          "internalType": "uint256",
          "name": "newTimeLock",
          "type": "uint256"
        }
      ],
      "name": "updateTimeLock",
      "outputs": [],
      "stateMutability": "nonpayable",
      "type": "function"
    },
    {
      "inputs": [
        {
          "internalType": "uint256",
          "name": "amount",
          "type": "uint256"
        }
      ],
      "name": "withdraw",
      "outputs": [],
      "stateMutability": "nonpayable",
      "type": "function"
    },
    {
      "inputs": [],
      "name": "withdrawAll",
      "outputs": [],
      "stateMutability": "nonpayable",
      "type": "function"
    },
    {
      "stateMutability": "payable",
      "type": "receive"
    }
  ],
  "transactionHash": "0xd23a264e1c42cb563a4bdcc5b37aa03c800a62fc7257fa0d3ab39c221a689fa9",
  "args": [
    "0x5e5007bdd3eb92575499e17eabdd411b42cf79c0",
    "10000000000000000",
    86400
  ],
  "numDeployments": 1,
  "solcInputHash": "12017354e5a61bb547cd3c9852a74f45",
  "bytecode": "0x60806040526040516200120838038062001208833981810160405281019062000029919062000212565b620000496200003d620000a160201b60201c565b620000a960201b60201c565b82600160006101000a81548173ffffffffffffffffffffffffffffffffffffffff021916908373ffffffffffffffffffffffffffffffffffffffff16021790555081600281905550806003819055505050506200026e565b600033905090565b60008060009054906101000a900473ffffffffffffffffffffffffffffffffffffffff169050816000806101000a81548173ffffffffffffffffffffffffffffffffffffffff021916908373ffffffffffffffffffffffffffffffffffffffff1602179055508173ffffffffffffffffffffffffffffffffffffffff168173ffffffffffffffffffffffffffffffffffffffff167f8be0079c531659141344cd1fd0a4f28419497f9722a3daafe3b4186f6b6457e060405160405180910390a35050565b600080fd5b600073ffffffffffffffffffffffffffffffffffffffff82169050919050565b60006200019f8262000172565b9050919050565b620001b18162000192565b8114620001bd57600080fd5b50565b600081519050620001d181620001a6565b92915050565b6000819050919050565b620001ec81620001d7565b8114620001f857600080fd5b50565b6000815190506200020c81620001e1565b92915050565b6000806000606084860312156200022e576200022d6200016d565b5b60006200023e86828701620001c0565b93505060206200025186828701620001fb565b92505060406200026486828701620001fb565b9150509250925092565b610f8a806200027e6000396000f3fe6080604052600436106100e15760003560e01c8063853828b61161007f5780639f678cca116100595780639f678cca1461027c578063cfb530de14610293578063d085835a146102bc578063f2fde38b146102e7576100e8565b8063853828b61461020f5780638da5cb5b1461022657806398caffc614610251576100e8565b806330e9c341116100bb57806330e9c3411461017b57806333725c21146101a457806335a1529b146101cd578063715018a6146101f8576100e8565b80630935f004146100ea57806312065fe0146101275780632e1a7d4d14610152576100e8565b366100e857005b005b3480156100f657600080fd5b50610111600480360381019061010c9190610a09565b610310565b60405161011e9190610a4f565b60405180910390f35b34801561013357600080fd5b5061013c610328565b6040516101499190610a4f565b60405180910390f35b34801561015e57600080fd5b5061017960048036038101906101749190610a96565b610330565b005b34801561018757600080fd5b506101a2600480360381019061019d9190610a96565b610344565b005b3480156101b057600080fd5b506101cb60048036038101906101c69190610a96565b610356565b005b3480156101d957600080fd5b506101e2610368565b6040516101ef9190610a4f565b60405180910390f35b34801561020457600080fd5b5061020d61036e565b005b34801561021b57600080fd5b50610224610382565b005b34801561023257600080fd5b5061023b61039b565b6040516102489190610ad2565b60405180910390f35b34801561025d57600080fd5b506102666103c4565b6040516102739190610ad2565b60405180910390f35b34801561028857600080fd5b506102916103ea565b005b34801561029f57600080fd5b506102ba60048036038101906102b59190610a09565b610697565b005b3480156102c857600080fd5b506102d16106e3565b6040516102de9190610a4f565b60405180910390f35b3480156102f357600080fd5b5061030e60048036038101906103099190610a09565b6106e9565b005b60046020528060005260406000206000915090505481565b600047905090565b61033861076d565b610341816107eb565b50565b61034c61076d565b8060038190555050565b61035e61076d565b8060028190555050565b60025481565b61037661076d565b61038060006108da565b565b61038a61076d565b6000479050610398816107eb565b50565b60008060009054906101000a900473ffffffffffffffffffffffffffffffffffffffff16905090565b600160009054906101000a900473ffffffffffffffffffffffffffffffffffffffff1681565b6000600160009054906101000a900473ffffffffffffffffffffffffffffffffffffffff1673ffffffffffffffffffffffffffffffffffffffff166370a08231336040518263ffffffff1660e01b81526004016104479190610ad2565b602060405180830381600087803b15801561046157600080fd5b505af1158015610475573d6000803e3d6000fd5b505050506040513d601f19601f820116820180604052508101906104999190610b02565b116104d9576040517f08c379a00000000000000000000000000000000000000000000000000000000081526004016104d090610bb2565b60405180910390fd5b600354600460003373ffffffffffffffffffffffffffffffffffffffff1673ffffffffffffffffffffffffffffffffffffffff168152602001908152602001600020546105269190610c01565b4211610567576040517f08c379a000000000000000000000000000000000000000000000000000000000815260040161055e90610cc9565b60405180910390fd5b42600460003373ffffffffffffffffffffffffffffffffffffffff1673ffffffffffffffffffffffffffffffffffffffff1681526020019081526020016000208190555060003373ffffffffffffffffffffffffffffffffffffffff166002546040516105d390610d1a565b60006040518083038185875af1925050503d8060008114610610576040519150601f19603f3d011682016040523d82523d6000602084013e610615565b606091505b5050905080610659576040517f08c379a000000000000000000000000000000000000000000000000000000000815260040161065090610da1565b60405180910390fd5b7f0daf449977d5acafa35195e10b3eb92f97839892a6653afaba222379b58d8a9b3360025460405161068c929190610dc1565b60405180910390a150565b61069f61076d565b80600160006101000a81548173ffffffffffffffffffffffffffffffffffffffff021916908373ffffffffffffffffffffffffffffffffffffffff16021790555050565b60035481565b6106f161076d565b600073ffffffffffffffffffffffffffffffffffffffff168173ffffffffffffffffffffffffffffffffffffffff161415610761576040517f08c379a000000000000000000000000000000000000000000000000000000000815260040161075890610e5c565b60405180910390fd5b61076a816108da565b50565b61077561099e565b73ffffffffffffffffffffffffffffffffffffffff1661079361039b565b73ffffffffffffffffffffffffffffffffffffffff16146107e9576040517f08c379a00000000000000000000000000000000000000000000000000000000081526004016107e090610ec8565b60405180910390fd5b565b600033905060008173ffffffffffffffffffffffffffffffffffffffff168360405161081690610d1a565b60006040518083038185875af1925050503d8060008114610853576040519150601f19603f3d011682016040523d82523d6000602084013e610858565b606091505b505090508061089c576040517f08c379a000000000000000000000000000000000000000000000000000000000815260040161089390610f34565b60405180910390fd5b7f7084f5476618d8e60b11ef0d7d3f06914655adb8793e28ff7f018d4c76d505d582846040516108cd929190610dc1565b60405180910390a1505050565b60008060009054906101000a900473ffffffffffffffffffffffffffffffffffffffff169050816000806101000a81548173ffffffffffffffffffffffffffffffffffffffff021916908373ffffffffffffffffffffffffffffffffffffffff1602179055508173ffffffffffffffffffffffffffffffffffffffff168173ffffffffffffffffffffffffffffffffffffffff167f8be0079c531659141344cd1fd0a4f28419497f9722a3daafe3b4186f6b6457e060405160405180910390a35050565b600033905090565b600080fd5b600073ffffffffffffffffffffffffffffffffffffffff82169050919050565b60006109d6826109ab565b9050919050565b6109e6816109cb565b81146109f157600080fd5b50565b600081359050610a03816109dd565b92915050565b600060208284031215610a1f57610a1e6109a6565b5b6000610a2d848285016109f4565b91505092915050565b6000819050919050565b610a4981610a36565b82525050565b6000602082019050610a646000830184610a40565b92915050565b610a7381610a36565b8114610a7e57600080fd5b50565b600081359050610a9081610a6a565b92915050565b600060208284031215610aac57610aab6109a6565b5b6000610aba84828501610a81565b91505092915050565b610acc816109cb565b82525050565b6000602082019050610ae76000830184610ac3565b92915050565b600081519050610afc81610a6a565b92915050565b600060208284031215610b1857610b176109a6565b5b6000610b2684828501610aed565b91505092915050565b600082825260208201905092915050565b7f556e617574686f72697a65643a204f776e657273686970206f6620612048756d60008201527f616e626f756e6420546f6b656e20697320726571756972656400000000000000602082015250565b6000610b9c603983610b2f565b9150610ba782610b40565b604082019050919050565b60006020820190508181036000830152610bcb81610b8f565b9050919050565b7f4e487b7100000000000000000000000000000000000000000000000000000000600052601160045260246000fd5b6000610c0c82610a36565b9150610c1783610a36565b9250827fffffffffffffffffffffffffffffffffffffffffffffffffffffffffffffffff03821115610c4c57610c4b610bd2565b5b828201905092915050565b7f596f75207265616368656420796f75722071756f74612e20436f6d652062616360008201527f6b2061667465722074686520636f6f6c646f776e20706572696f642e00000000602082015250565b6000610cb3603c83610b2f565b9150610cbe82610c57565b604082019050919050565b60006020820190508181036000830152610ce281610ca6565b9050919050565b600081905092915050565b50565b6000610d04600083610ce9565b9150610d0f82610cf4565b600082019050919050565b6000610d2582610cf7565b9150819050919050565b7f4661696c656420746f2064726970204554482e20497320746865726520656e6f60008201527f7567682066756e64733f00000000000000000000000000000000000000000000602082015250565b6000610d8b602a83610b2f565b9150610d9682610d2f565b604082019050919050565b60006020820190508181036000830152610dba81610d7e565b9050919050565b6000604082019050610dd66000830185610ac3565b610de36020830184610a40565b9392505050565b7f4f776e61626c653a206e6577206f776e657220697320746865207a65726f206160008201527f6464726573730000000000000000000000000000000000000000000000000000602082015250565b6000610e46602683610b2f565b9150610e5182610dea565b604082019050919050565b60006020820190508181036000830152610e7581610e39565b9050919050565b7f4f776e61626c653a2063616c6c6572206973206e6f7420746865206f776e6572600082015250565b6000610eb2602083610b2f565b9150610ebd82610e7c565b602082019050919050565b60006020820190508181036000830152610ee181610ea5565b9050919050565b7f4661696c6564207769746864726177696e672045544800000000000000000000600082015250565b6000610f1e601683610b2f565b9150610f2982610ee8565b602082019050919050565b60006020820190508181036000830152610f4d81610f11565b905091905056fea2646970667358221220eca1d9ddade1755467121bb9dde18ab7e226d828ff493bdae92743467fb7ba9764736f6c63430008090033",
  "devdoc": {
    "kind": "dev",
    "methods": {
      "owner()": {
        "details": "Returns the address of the current owner."
      },
      "renounceOwnership()": {
        "details": "Leaves the contract without owner. It will not be possible to call `onlyOwner` functions anymore. Can only be called by the current owner. NOTE: Renouncing ownership will leave the contract without an owner, thereby removing any functionality that is only available to the owner."
      },
      "transferOwnership(address)": {
        "details": "Transfers ownership of the contract to a new account (`newOwner`). Can only be called by the current owner."
      }
    },
    "version": 1
  },
  "userdoc": {
    "kind": "user",
    "methods": {},
    "version": 1
  },
  "storageLayout": {
    "storage": [
      {
        "astId": 7,
        "contract": "contracts/Faucet.sol:HumanboundTokenGatedFaucet",
        "label": "_owner",
        "offset": 0,
        "slot": "0",
        "type": "t_address"
      },
      {
        "astId": 2299,
        "contract": "contracts/Faucet.sol:HumanboundTokenGatedFaucet",
        "label": "hbtContract",
        "offset": 0,
        "slot": "1",
        "type": "t_address"
      },
      {
        "astId": 2301,
        "contract": "contracts/Faucet.sol:HumanboundTokenGatedFaucet",
        "label": "dripAmount",
        "offset": 0,
        "slot": "2",
        "type": "t_uint256"
      },
      {
        "astId": 2303,
        "contract": "contracts/Faucet.sol:HumanboundTokenGatedFaucet",
        "label": "timeLock",
        "offset": 0,
        "slot": "3",
        "type": "t_uint256"
      },
      {
        "astId": 2307,
        "contract": "contracts/Faucet.sol:HumanboundTokenGatedFaucet",
        "label": "lastDrip",
        "offset": 0,
        "slot": "4",
        "type": "t_mapping(t_address,t_uint256)"
      }
    ],
    "types": {
      "t_address": {
        "encoding": "inplace",
        "label": "address",
        "numberOfBytes": "20"
      },
      "t_mapping(t_address,t_uint256)": {
        "encoding": "mapping",
        "key": "t_address",
        "label": "mapping(address => uint256)",
        "numberOfBytes": "32",
        "value": "t_uint256"
      },
      "t_uint256": {
        "encoding": "inplace",
        "label": "uint256",
        "numberOfBytes": "32"
      }
    }
  }
}