{
  "address": "0x8D3891378FC5e1551054A9dEa93603ad308a6D09",
  "abi": [
    {
      "inputs": [
        {
          "internalType": "address",
          "name": "hbtContract_",
          "type": "address"
        },
        {
          "internalType": "address",
          "name": "erc20Contract_",
          "type": "address"
        },
        {
          "internalType": "uint128",
          "name": "nativeTokendDripAmount_",
          "type": "uint128"
        },
        {
          "internalType": "uint128",
          "name": "erc20TokenDripAmount_",
          "type": "uint128"
        },
        {
          "internalType": "uint128",
          "name": "timeLockInSeconds_",
          "type": "uint128"
        }
      ],
      "stateMutability": "payable",
      "type": "constructor"
    },
    {
      "anonymous": false,
      "inputs": [
        {
          "indexed": false,
          "internalType": "address",
          "name": "recipient",
          "type": "address"
        },
        {
          "indexed": false,
          "internalType": "uint256",
          "name": "amount",
          "type": "uint256"
        },
        {
          "indexed": false,
          "internalType": "bool",
          "name": "isNativeToken",
          "type": "bool"
        }
      ],
      "name": "Dripped",
      "type": "event"
    },
    {
      "anonymous": false,
      "inputs": [
        {
          "indexed": true,
          "internalType": "address",
          "name": "previousOwner",
          "type": "address"
        },
        {
          "indexed": true,
          "internalType": "address",
          "name": "newOwner",
          "type": "address"
        }
      ],
      "name": "OwnershipTransferred",
      "type": "event"
    },
    {
      "anonymous": false,
      "inputs": [
        {
          "indexed": false,
          "internalType": "address",
          "name": "recipient",
          "type": "address"
        },
        {
          "indexed": false,
          "internalType": "uint256",
          "name": "amount",
          "type": "uint256"
        }
      ],
      "name": "Withdrawn",
      "type": "event"
    },
    {
      "stateMutability": "payable",
      "type": "fallback"
    },
    {
      "inputs": [],
      "name": "dripERC20Tokens",
      "outputs": [],
      "stateMutability": "nonpayable",
      "type": "function"
    },
    {
      "inputs": [],
      "name": "dripNativeTokens",
      "outputs": [],
      "stateMutability": "nonpayable",
      "type": "function"
    },
    {
      "inputs": [],
      "name": "erc20Contract",
      "outputs": [
        {
          "internalType": "contract ITestERC20",
          "name": "",
          "type": "address"
        }
      ],
      "stateMutability": "view",
      "type": "function"
    },
    {
      "inputs": [],
      "name": "erc20TokendDripAmount",
      "outputs": [
        {
          "internalType": "uint128",
          "name": "",
          "type": "uint128"
        }
      ],
      "stateMutability": "view",
      "type": "function"
    },
    {
      "inputs": [],
      "name": "getBalance",
      "outputs": [
        {
          "internalType": "uint256",
          "name": "",
          "type": "uint256"
        }
      ],
      "stateMutability": "view",
      "type": "function"
    },
    {
      "inputs": [],
      "name": "getStatus",
      "outputs": [
        {
          "internalType": "uint256",
          "name": "balance_",
          "type": "uint256"
        },
        {
          "internalType": "address",
          "name": "erc20Contract_",
          "type": "address"
        },
        {
          "internalType": "uint128",
          "name": "nativeTokendDripAmount_",
          "type": "uint128"
        },
        {
          "internalType": "uint128",
          "name": "erc20TokendDripAmount_",
          "type": "uint128"
        },
        {
          "internalType": "uint128",
          "name": "timeLockInSeconds_",
          "type": "uint128"
        }
      ],
      "stateMutability": "view",
      "type": "function"
    },
    {
      "inputs": [],
      "name": "hbtContract",
      "outputs": [
        {
          "internalType": "address",
          "name": "",
          "type": "address"
        }
      ],
      "stateMutability": "view",
      "type": "function"
    },
    {
      "inputs": [
        {
          "internalType": "address",
          "name": "",
          "type": "address"
        }
      ],
      "name": "lastDrip",
      "outputs": [
        {
          "internalType": "uint256",
          "name": "",
          "type": "uint256"
        }
      ],
      "stateMutability": "view",
      "type": "function"
    },
    {
      "inputs": [],
      "name": "nativeTokendDripAmount",
      "outputs": [
        {
          "internalType": "uint128",
          "name": "",
          "type": "uint128"
        }
      ],
      "stateMutability": "view",
      "type": "function"
    },
    {
      "inputs": [],
      "name": "owner",
      "outputs": [
        {
          "internalType": "address",
          "name": "",
          "type": "address"
        }
      ],
      "stateMutability": "view",
      "type": "function"
    },
    {
      "inputs": [],
      "name": "renounceOwnership",
      "outputs": [],
      "stateMutability": "nonpayable",
      "type": "function"
    },
    {
      "inputs": [],
      "name": "timeLockInSeconds",
      "outputs": [
        {
          "internalType": "uint128",
          "name": "",
          "type": "uint128"
        }
      ],
      "stateMutability": "view",
      "type": "function"
    },
    {
      "inputs": [
        {
          "internalType": "address",
          "name": "newOwner",
          "type": "address"
        }
      ],
      "name": "transferOwnership",
      "outputs": [],
      "stateMutability": "nonpayable",
      "type": "function"
    },
    {
      "inputs": [
        {
          "internalType": "address",
          "name": "newERC20ContractAddress",
          "type": "address"
        }
      ],
      "name": "updateERC20ContractAddress",
      "outputs": [],
      "stateMutability": "nonpayable",
      "type": "function"
    },
    {
      "inputs": [
        {
          "internalType": "uint128",
          "name": "newAmount",
          "type": "uint128"
        }
      ],
      "name": "updateERC20TokenDripAmount",
      "outputs": [],
      "stateMutability": "nonpayable",
      "type": "function"
    },
    {
      "inputs": [
        {
          "internalType": "address",
          "name": "newHBTContractAddress",
          "type": "address"
        }
      ],
      "name": "updateHBTContractAddress",
      "outputs": [],
      "stateMutability": "nonpayable",
      "type": "function"
    },
    {
      "inputs": [
        {
          "internalType": "uint128",
          "name": "newAmount",
          "type": "uint128"
        }
      ],
      "name": "updateNativeTokenDripAmount",
      "outputs": [],
      "stateMutability": "nonpayable",
      "type": "function"
    },
    {
      "inputs": [
        {
          "internalType": "uint128",
          "name": "newTimeLock",
          "type": "uint128"
        }
      ],
      "name": "updateTimeLock",
      "outputs": [],
      "stateMutability": "nonpayable",
      "type": "function"
    },
    {
      "inputs": [
        {
          "internalType": "uint256",
          "name": "amount",
          "type": "uint256"
        }
      ],
      "name": "withdraw",
      "outputs": [],
      "stateMutability": "nonpayable",
      "type": "function"
    },
    {
      "inputs": [],
      "name": "withdrawAll",
      "outputs": [],
      "stateMutability": "nonpayable",
      "type": "function"
    },
    {
      "stateMutability": "payable",
      "type": "receive"
    }
  ],
  "transactionHash": "0xc45f3ec68969aa7dd015fb3a7f170b6b9dbc90ef0bd4e0bfa2dcae53cca5b600",
  "args": [
    "0x5e5007bdd3eb92575499e17eabdd411b42cf79c0",
    "0x1888649D566908E0A4Ac17978740F6A04f600a51",
    "10000000000000000",
    "10000000000000000000000",
    1209600
  ],
  "numDeployments": 3,
  "solcInputHash": "f5a63c48b741cafc72247c44de555742",
  "bytecode": "0x6080604052604051620019f0380380620019f0833981810160405281019062000029919062000304565b620000496200003d6200018160201b60201c565b6200018960201b60201c565b84600160006101000a81548173ffffffffffffffffffffffffffffffffffffffff021916908373ffffffffffffffffffffffffffffffffffffffff16021790555083600260006101000a81548173ffffffffffffffffffffffffffffffffffffffff021916908373ffffffffffffffffffffffffffffffffffffffff16021790555082600360006101000a8154816fffffffffffffffffffffffffffffffff02191690836fffffffffffffffffffffffffffffffff16021790555081600360106101000a8154816fffffffffffffffffffffffffffffffff02191690836fffffffffffffffffffffffffffffffff16021790555080600460006101000a8154816fffffffffffffffffffffffffffffffff02191690836fffffffffffffffffffffffffffffffff16021790555050505050506200038c565b600033905090565b60008060009054906101000a900473ffffffffffffffffffffffffffffffffffffffff169050816000806101000a81548173ffffffffffffffffffffffffffffffffffffffff021916908373ffffffffffffffffffffffffffffffffffffffff1602179055508173ffffffffffffffffffffffffffffffffffffffff168173ffffffffffffffffffffffffffffffffffffffff167f8be0079c531659141344cd1fd0a4f28419497f9722a3daafe3b4186f6b6457e060405160405180910390a35050565b600080fd5b600073ffffffffffffffffffffffffffffffffffffffff82169050919050565b60006200027f8262000252565b9050919050565b620002918162000272565b81146200029d57600080fd5b50565b600081519050620002b18162000286565b92915050565b60006fffffffffffffffffffffffffffffffff82169050919050565b620002de81620002b7565b8114620002ea57600080fd5b50565b600081519050620002fe81620002d3565b92915050565b600080600080600060a086880312156200032357620003226200024d565b5b60006200033388828901620002a0565b95505060206200034688828901620002a0565b94505060406200035988828901620002ed565b93505060606200036c88828901620002ed565b92505060806200037f88828901620002ed565b9150509295509295909350565b611654806200039c6000396000f3fe6080604052600436106101235760003560e01c8063827b5ab4116100a0578063a048b26011610064578063a048b26014610383578063a8f6c9131461039a578063cfb530de146103c5578063f24282fe146103ee578063f2fde38b146104175761012a565b8063827b5ab4146102d4578063853828b6146102eb5780638da5cb5b146103025780638df4e82a1461032d57806398caffc6146103585761012a565b80634124f931116100e75780634124f93114610211578063431a9fb51461023c5780634e69d56014610265578063715018a6146102945780637c5e59ee146102ab5761012a565b80630762fde31461012c5780630935f004146101575780630d1d6ff91461019457806312065fe0146101bd5780632e1a7d4d146101e85761012a565b3661012a57005b005b34801561013857600080fd5b50610141610440565b60405161014e9190610e83565b60405180910390f35b34801561016357600080fd5b5061017e60048036038101906101799190610f01565b610462565b60405161018b9190610f47565b60405180910390f35b3480156101a057600080fd5b506101bb60048036038101906101b69190610f8e565b61047a565b005b3480156101c957600080fd5b506101d26104be565b6040516101df9190610f47565b60405180910390f35b3480156101f457600080fd5b5061020f600480360381019061020a9190610fe7565b6104c6565b005b34801561021d57600080fd5b506102266104da565b6040516102339190610e83565b60405180910390f35b34801561024857600080fd5b50610263600480360381019061025e9190610f01565b6104fc565b005b34801561027157600080fd5b5061027a610548565b60405161028b959493929190611023565b60405180910390f35b3480156102a057600080fd5b506102a96105e2565b005b3480156102b757600080fd5b506102d260048036038101906102cd9190610f8e565b6105f6565b005b3480156102e057600080fd5b506102e961063a565b005b3480156102f757600080fd5b50610300610953565b005b34801561030e57600080fd5b5061031761096c565b6040516103249190611076565b60405180910390f35b34801561033957600080fd5b50610342610995565b60405161034f9190610e83565b60405180910390f35b34801561036457600080fd5b5061036d6109b7565b60405161037a9190611076565b60405180910390f35b34801561038f57600080fd5b506103986109dd565b005b3480156103a657600080fd5b506103af610ae6565b6040516103bc91906110f0565b60405180910390f35b3480156103d157600080fd5b506103ec60048036038101906103e79190610f01565b610b0c565b005b3480156103fa57600080fd5b5061041560048036038101906104109190610f8e565b610b58565b005b34801561042357600080fd5b5061043e60048036038101906104399190610f01565b610b9c565b005b600460009054906101000a90046fffffffffffffffffffffffffffffffff1681565b60056020528060005260406000206000915090505481565b610482610c1f565b80600360106101000a8154816fffffffffffffffffffffffffffffffff02191690836fffffffffffffffffffffffffffffffff16021790555050565b600047905090565b6104ce610c1f565b6104d781610c9d565b50565b600360009054906101000a90046fffffffffffffffffffffffffffffffff1681565b610504610c1f565b80600260006101000a81548173ffffffffffffffffffffffffffffffffffffffff021916908373ffffffffffffffffffffffffffffffffffffffff16021790555050565b600080600080600047600260009054906101000a900473ffffffffffffffffffffffffffffffffffffffff16600360009054906101000a90046fffffffffffffffffffffffffffffffff16600360109054906101000a90046fffffffffffffffffffffffffffffffff16600460009054906101000a90046fffffffffffffffffffffffffffffffff16945094509450945094509091929394565b6105ea610c1f565b6105f46000610d8c565b565b6105fe610c1f565b80600460006101000a8154816fffffffffffffffffffffffffffffffff02191690836fffffffffffffffffffffffffffffffff16021790555050565b6000600160009054906101000a900473ffffffffffffffffffffffffffffffffffffffff1673ffffffffffffffffffffffffffffffffffffffff166370a08231336040518263ffffffff1660e01b81526004016106979190611076565b6020604051808303816000875af11580156106b6573d6000803e3d6000fd5b505050506040513d601f19601f820116820180604052508101906106da9190611120565b1161071a576040517f08c379a0000000000000000000000000000000000000000000000000000000008152600401610711906111d0565b60405180910390fd5b600460009054906101000a90046fffffffffffffffffffffffffffffffff166fffffffffffffffffffffffffffffffff16600560003373ffffffffffffffffffffffffffffffffffffffff1673ffffffffffffffffffffffffffffffffffffffff16815260200190815260200160002054610795919061121f565b42116107d6576040517f08c379a00000000000000000000000000000000000000000000000000000000081526004016107cd906112e7565b60405180910390fd5b42600560003373ffffffffffffffffffffffffffffffffffffffff1673ffffffffffffffffffffffffffffffffffffffff1681526020019081526020016000208190555060003373ffffffffffffffffffffffffffffffffffffffff16600360009054906101000a90046fffffffffffffffffffffffffffffffff166fffffffffffffffffffffffffffffffff1660405161087090611338565b60006040518083038185875af1925050503d80600081146108ad576040519150601f19603f3d011682016040523d82523d6000602084013e6108b2565b606091505b50509050806108f6576040517f08c379a00000000000000000000000000000000000000000000000000000000081526004016108ed906113bf565b60405180910390fd5b7f6598076c9af2410c0669c503130ed827a55d3e687985526680111a722364f43133600360009054906101000a90046fffffffffffffffffffffffffffffffff1660016040516109489392919061142b565b60405180910390a150565b61095b610c1f565b600047905061096981610c9d565b50565b60008060009054906101000a900473ffffffffffffffffffffffffffffffffffffffff16905090565b600360109054906101000a90046fffffffffffffffffffffffffffffffff1681565b600160009054906101000a900473ffffffffffffffffffffffffffffffffffffffff1681565b600260009054906101000a900473ffffffffffffffffffffffffffffffffffffffff1673ffffffffffffffffffffffffffffffffffffffff166340c10f1933600360109054906101000a90046fffffffffffffffffffffffffffffffff166040518363ffffffff1660e01b8152600401610a58929190611462565b600060405180830381600087803b158015610a7257600080fd5b505af1158015610a86573d6000803e3d6000fd5b505050507f6598076c9af2410c0669c503130ed827a55d3e687985526680111a722364f43133600360109054906101000a90046fffffffffffffffffffffffffffffffff166000604051610adc9392919061142b565b60405180910390a1565b600260009054906101000a900473ffffffffffffffffffffffffffffffffffffffff1681565b610b14610c1f565b80600160006101000a81548173ffffffffffffffffffffffffffffffffffffffff021916908373ffffffffffffffffffffffffffffffffffffffff16021790555050565b610b60610c1f565b80600360006101000a8154816fffffffffffffffffffffffffffffffff02191690836fffffffffffffffffffffffffffffffff16021790555050565b610ba4610c1f565b600073ffffffffffffffffffffffffffffffffffffffff168173ffffffffffffffffffffffffffffffffffffffff1603610c13576040517f08c379a0000000000000000000000000000000000000000000000000000000008152600401610c0a906114fd565b60405180910390fd5b610c1c81610d8c565b50565b610c27610e50565b73ffffffffffffffffffffffffffffffffffffffff16610c4561096c565b73ffffffffffffffffffffffffffffffffffffffff1614610c9b576040517f08c379a0000000000000000000000000000000000000000000000000000000008152600401610c9290611569565b60405180910390fd5b565b600033905060008173ffffffffffffffffffffffffffffffffffffffff1683604051610cc890611338565b60006040518083038185875af1925050503d8060008114610d05576040519150601f19603f3d011682016040523d82523d6000602084013e610d0a565b606091505b5050905080610d4e576040517f08c379a0000000000000000000000000000000000000000000000000000000008152600401610d45906115d5565b60405180910390fd5b7f7084f5476618d8e60b11ef0d7d3f06914655adb8793e28ff7f018d4c76d505d58284604051610d7f9291906115f5565b60405180910390a1505050565b60008060009054906101000a900473ffffffffffffffffffffffffffffffffffffffff169050816000806101000a81548173ffffffffffffffffffffffffffffffffffffffff021916908373ffffffffffffffffffffffffffffffffffffffff1602179055508173ffffffffffffffffffffffffffffffffffffffff168173ffffffffffffffffffffffffffffffffffffffff167f8be0079c531659141344cd1fd0a4f28419497f9722a3daafe3b4186f6b6457e060405160405180910390a35050565b600033905090565b60006fffffffffffffffffffffffffffffffff82169050919050565b610e7d81610e58565b82525050565b6000602082019050610e986000830184610e74565b92915050565b600080fd5b600073ffffffffffffffffffffffffffffffffffffffff82169050919050565b6000610ece82610ea3565b9050919050565b610ede81610ec3565b8114610ee957600080fd5b50565b600081359050610efb81610ed5565b92915050565b600060208284031215610f1757610f16610e9e565b5b6000610f2584828501610eec565b91505092915050565b6000819050919050565b610f4181610f2e565b82525050565b6000602082019050610f5c6000830184610f38565b92915050565b610f6b81610e58565b8114610f7657600080fd5b50565b600081359050610f8881610f62565b92915050565b600060208284031215610fa457610fa3610e9e565b5b6000610fb284828501610f79565b91505092915050565b610fc481610f2e565b8114610fcf57600080fd5b50565b600081359050610fe181610fbb565b92915050565b600060208284031215610ffd57610ffc610e9e565b5b600061100b84828501610fd2565b91505092915050565b61101d81610ec3565b82525050565b600060a0820190506110386000830188610f38565b6110456020830187611014565b6110526040830186610e74565b61105f6060830185610e74565b61106c6080830184610e74565b9695505050505050565b600060208201905061108b6000830184611014565b92915050565b6000819050919050565b60006110b66110b16110ac84610ea3565b611091565b610ea3565b9050919050565b60006110c88261109b565b9050919050565b60006110da826110bd565b9050919050565b6110ea816110cf565b82525050565b600060208201905061110560008301846110e1565b92915050565b60008151905061111a81610fbb565b92915050565b60006020828403121561113657611135610e9e565b5b60006111448482850161110b565b91505092915050565b600082825260208201905092915050565b7f556e617574686f72697a65643a204f776e657273686970206f6620612048756d60008201527f616e626f756e6420546f6b656e20697320726571756972656400000000000000602082015250565b60006111ba60398361114d565b91506111c58261115e565b604082019050919050565b600060208201905081810360008301526111e9816111ad565b9050919050565b7f4e487b7100000000000000000000000000000000000000000000000000000000600052601160045260246000fd5b600061122a82610f2e565b915061123583610f2e565b9250827fffffffffffffffffffffffffffffffffffffffffffffffffffffffffffffffff0382111561126a576112696111f0565b5b828201905092915050565b7f596f75207265616368656420796f75722071756f74612e20436f6d652062616360008201527f6b2061667465722074686520636f6f6c646f776e20706572696f642e00000000602082015250565b60006112d1603c8361114d565b91506112dc82611275565b604082019050919050565b60006020820190508181036000830152611300816112c4565b9050919050565b600081905092915050565b50565b6000611322600083611307565b915061132d82611312565b600082019050919050565b600061134382611315565b9150819050919050565b7f4661696c656420746f2064726970204554482e20497320746865726520656e6f60008201527f7567682066756e64733f00000000000000000000000000000000000000000000602082015250565b60006113a9602a8361114d565b91506113b48261134d565b604082019050919050565b600060208201905081810360008301526113d88161139c565b9050919050565b60006113fa6113f56113f084610e58565b611091565b610f2e565b9050919050565b61140a816113df565b82525050565b60008115159050919050565b61142581611410565b82525050565b60006060820190506114406000830186611014565b61144d6020830185611401565b61145a604083018461141c565b949350505050565b60006040820190506114776000830185611014565b6114846020830184611401565b9392505050565b7f4f776e61626c653a206e6577206f776e657220697320746865207a65726f206160008201527f6464726573730000000000000000000000000000000000000000000000000000602082015250565b60006114e760268361114d565b91506114f28261148b565b604082019050919050565b60006020820190508181036000830152611516816114da565b9050919050565b7f4f776e61626c653a2063616c6c6572206973206e6f7420746865206f776e6572600082015250565b600061155360208361114d565b915061155e8261151d565b602082019050919050565b6000602082019050818103600083015261158281611546565b9050919050565b7f4661696c6564207769746864726177696e672045544800000000000000000000600082015250565b60006115bf60168361114d565b91506115ca82611589565b602082019050919050565b600060208201905081810360008301526115ee816115b2565b9050919050565b600060408201905061160a6000830185611014565b6116176020830184610f38565b939250505056fea26469706673582212203714a9218bc88496bf6d4a75bbe6e9a96702859d839fcfd83db04f9f4920165664736f6c634300080e0033",
  "devdoc": {
    "kind": "dev",
    "methods": {
      "owner()": {
        "details": "Returns the address of the current owner."
      },
      "renounceOwnership()": {
        "details": "Leaves the contract without owner. It will not be possible to call `onlyOwner` functions anymore. Can only be called by the current owner. NOTE: Renouncing ownership will leave the contract without an owner, thereby removing any functionality that is only available to the owner."
      },
      "transferOwnership(address)": {
        "details": "Transfers ownership of the contract to a new account (`newOwner`). Can only be called by the current owner."
      }
    },
    "version": 1
  },
  "userdoc": {
    "kind": "user",
    "methods": {},
    "version": 1
  },
  "storageLayout": {
    "storage": [
      {
        "astId": 7,
        "contract": "contracts/Faucet.sol:HumanboundTokenGatedFaucet",
        "label": "_owner",
        "offset": 0,
        "slot": "0",
        "type": "t_address"
      },
      {
        "astId": 2991,
        "contract": "contracts/Faucet.sol:HumanboundTokenGatedFaucet",
        "label": "hbtContract",
        "offset": 0,
        "slot": "1",
        "type": "t_address"
      },
      {
        "astId": 2994,
        "contract": "contracts/Faucet.sol:HumanboundTokenGatedFaucet",
        "label": "erc20Contract",
        "offset": 0,
        "slot": "2",
        "type": "t_contract(ITestERC20)3307"
      },
      {
        "astId": 2996,
        "contract": "contracts/Faucet.sol:HumanboundTokenGatedFaucet",
        "label": "nativeTokendDripAmount",
        "offset": 0,
        "slot": "3",
        "type": "t_uint128"
      },
      {
        "astId": 2998,
        "contract": "contracts/Faucet.sol:HumanboundTokenGatedFaucet",
        "label": "erc20TokendDripAmount",
        "offset": 16,
        "slot": "3",
        "type": "t_uint128"
      },
      {
        "astId": 3000,
        "contract": "contracts/Faucet.sol:HumanboundTokenGatedFaucet",
        "label": "timeLockInSeconds",
        "offset": 0,
        "slot": "4",
        "type": "t_uint128"
      },
      {
        "astId": 3004,
        "contract": "contracts/Faucet.sol:HumanboundTokenGatedFaucet",
        "label": "lastDrip",
        "offset": 0,
        "slot": "5",
        "type": "t_mapping(t_address,t_uint256)"
      }
    ],
    "types": {
      "t_address": {
        "encoding": "inplace",
        "label": "address",
        "numberOfBytes": "20"
      },
      "t_contract(ITestERC20)3307": {
        "encoding": "inplace",
        "label": "contract ITestERC20",
        "numberOfBytes": "20"
      },
      "t_mapping(t_address,t_uint256)": {
        "encoding": "mapping",
        "key": "t_address",
        "label": "mapping(address => uint256)",
        "numberOfBytes": "32",
        "value": "t_uint256"
      },
      "t_uint128": {
        "encoding": "inplace",
        "label": "uint128",
        "numberOfBytes": "16"
      },
      "t_uint256": {
        "encoding": "inplace",
        "label": "uint256",
        "numberOfBytes": "32"
      }
    }
  }
}